:020000040000fa
:080000000002040000000000f2
:020000040000fa
:04000800d40200001e
:020000040000fa
:04000c00d40200001a
:020000040000fa
:04001000d402000016
:020000040000fa
:04001400d402000012
:020000040000fa
:04001800d40200000e
:020000040000fa
:04001c00d40200000a
:020000040000fa
:04002000d402000006
:020000040000fa
:04002400d402000002
:020000040000fa
:04002800d4020000fe
:020000040000fa
:04002c00d4020000fa
:020000040000fa
:04003000d4020000f6
:020000040000fa
:04003400d4020000f2
:020000040000fa
:04003800d4020000ee
:020000040000fa
:04003c00d4020000ea
:020000040000fa
:04004000d4020000e6
:020000040000fa
:04004400d4020000e2
:020000040000fa
:04004800d4020000de
:020000040000fa
:04004c00d4020000da
:020000040000fa
:04005000d4020000d6
:020000040000fa
:04005400d4020000d2
:020000040000fa
:04005800d4020000ce
:020000040000fa
:04005c00d4020000ca
:020000040000fa
:04006000d4020000c6
:020000040000fa
:04006400d4020000c2
:020000040000fa
:04006800d4020000be
:020000040000fa
:04006c00d4020000ba
:020000040000fa
:04007000d4020000b6
:020000040000fa
:04007400d4020000b2
:020000040000fa
:04007800d4020000ae
:020000040000fa
:04007c00d4020000aa
:020000040000fa
:04008000d4020000a6
:020000040000fa
:04008400d4020000a2
:020000040000fa
:04008800d40200009e
:020000040000fa
:04008c00d40200009a
:020000040000fa
:04009000d402000096
:020000040000fa
:04009400d402000092
:020000040000fa
:04009800d40200008e
:020000040000fa
:04009c00d40200008a
:020000040000fa
:0400a000d402000086
:020000040000fa
:0400a400d402000082
:020000040000fa
:0400a800d40200007e
:020000040000fa
:0400ac00d40200007a
:020000040000fa
:0400b000d402000076
:020000040000fa
:0400b400d402000072
:020000040000fa
:0400b800d40200006e
:020000040000fa
:0400bc00d40200006a
:020000040000fa
:0400c000d402000066
:020000040000fa
:0400c400d402000062
:020000040000fa
:0400c800d40200005e
:020000040000fa
:0400cc00d40200005a
:020000040000fa
:0400d000d402000056
:020000040000fa
:0400d400d402000052
:020000040000fa
:0400d800d40200004e
:020000040000fa
:0400dc00d40200004a
:020000040000fa
:0400e000d402000046
:020000040000fa
:0400e400d402000042
:020000040000fa
:0400e800d40200003e
:020000040000fa
:0400ec00d40200003a
:020000040000fa
:0400f000d402000036
:020000040000fa
:0400f400d402000032
:020000040000fa
:0400f800d40200002e
:020000040000fa
:0400fc00d40200002a
:020000040000fa
:04010000d402000025
:020000040000fa
:04010400d402000021
:020000040000fa
:04010800d40200001d
:020000040000fa
:04010c00d402000019
:020000040000fa
:04011000d402000015
:020000040000fa
:04011400d402000011
:020000040000fa
:04011800d40200000d
:020000040000fa
:04011c00d402000009
:020000040000fa
:04012000d402000005
:020000040000fa
:04012400d402000001
:020000040000fa
:04012800d4020000fd
:020000040000fa
:04012c00d4020000f9
:020000040000fa
:04013000d4020000f5
:020000040000fa
:04013400d4020000f1
:020000040000fa
:04013800d4020000ed
:020000040000fa
:04013c00d4020000e9
:020000040000fa
:04014000d4020000e5
:020000040000fa
:04014400d4020000e1
:020000040000fa
:04014800d4020000dd
:020000040000fa
:04014c00d4020000d9
:020000040000fa
:04015000d4020000d5
:020000040000fa
:04015400d4020000d1
:020000040000fa
:04015800d4020000cd
:020000040000fa
:04015c00d4020000c9
:020000040000fa
:04016000d4020000c5
:020000040000fa
:04016400d4020000c1
:020000040000fa
:04020800d40200001c
:020000040000fa
:04020c00d402000018
:020000040000fa
:04021000d402000014
:020000040000fa
:04021400d402000010
:020000040000fa
:04021800d40200000c
:020000040000fa
:04021c00d402000008
:020000040000fa
:04022000d402000004
:020000040000fa
:04022400d402000000
:020000040000fa
:04022800d4020000fc
:020000040000fa
:04022c00d4020000f8
:020000040000fa
:04023000d4020000f4
:020000040000fa
:04023400d4020000f0
:020000040000fa
:04023800d4020000ec
:020000040000fa
:04023c00d4020000e8
:020000040000fa
:04024000d4020000e4
:020000040000fa
:04024400d4020000e0
:020000040000fa
:04024800d4020000dc
:020000040000fa
:04024c00d4020000d8
:020000040000fa
:04025000d4020000d4
:020000040000fa
:04025400d4020000d0
:020000040000fa
:04025800d4020000cc
:020000040000fa
:04025c00d4020000c8
:020000040000fa
:04026000d4020000c4
:020000040000fa
:04026400d4020000c0
:020000040000fa
:04026800d4020000bc
:020000040000fa
:04026c00d4020000b8
:020000040000fa
:04027000d4020000b4
:020000040000fa
:04027400d4020000b0
:020000040000fa
:04027800d4020000ac
:020000040000fa
:04027c00d4020000a8
:020000040000fa
:04028000d4020000a4
:020000040000fa
:04028400d4020000a0
:020000040000fa
:04028800d40200009c
:020000040000fa
:04028c00d402000098
:020000040000fa
:04029000d402000094
:020000040000fa
:04029400d402000090
:020000040000fa
:04029800d40200008c
:020000040000fa
:04029c00d402000088
:020000040000fa
:0402a000d402000084
:020000040000fa
:0402a400d402000080
:020000040000fa
:0402a800d40200007c
:020000040000fa
:0402ac00d402000078
:020000040000fa
:0402b000d402000074
:020000040000fa
:0402b400d402000070
:020000040000fa
:0402b800d40200006c
:020000040000fa
:0402bc00d402000068
:020000040000fa
:0402c000d402000064
:020000040000fa
:0402c400d402000060
:020000040000fa
:0402c800d40200005c
:020000040000fa
:0402cc00d402000058
:020000040000fa
:0402d000d402000054
:020000040000fa
:0402d400d402000050
:020000040000fa
:0402d800d40200004c
:020000040000fa
:0402dc00d402000048
:020000040000fa
:0402e000d402000044
:020000040000fa
:0402e400d402000040
:020000040000fa
:0402e800d40200003c
:020000040000fa
:0402ec00d402000038
:020000040000fa
:0402f000d402000034
:020000040000fa
:0402f400d402000030
:020000040000fa
:0402f800d40200002c
:020000040000fa
:0402fc00d402000028
:020000040000fa
:04030000d402000023
:020000040000fa
:04030400d40200001f
:020000040000fa
:04030800d40200001b
:020000040000fa
:04030c00d402000017
:020000040000fa
:04031000d402000013
:020000040000fa
:04031400d40200000f
:020000040000fa
:04031800d40200000b
:020000040000fa
:04031c00d402000007
:020000040000fa
:04032000d402000003
:020000040000fa
:04032400d4020000ff
:020000040000fa
:04032800d4020000fb
:020000040000fa
:04032c00d4020000f7
:020000040000fa
:04033000d4020000f3
:020000040000fa
:04033400d4020000ef
:020000040000fa
:04033800d4020000eb
:020000040000fa
:04033c00d4020000e7
:020000040000fa
:04034000d4020000e3
:020000040000fa
:04034400d4020000df
:020000040000fa
:04034800d4020000db
:020000040000fa
:04034c00d4020000d7
:020000040000fa
:04035000d4020000d3
:020000040000fa
:04035400d4020000cf
:020000040000fa
:04035800d4020000cb
:020000040000fa
:04035c00d4020000c7
:020000040000fa
:04036000d4020000c3
:020000040000fa
:04036400d4020000bf
:020000040000fa
:100400006f9020000e7f24000e0188000000000085
:10041000000020000000e000020032000001200087
:100420002002880014000700940007000000e0008c
:1004300003003a00c09b21000100200002003700a9
:100440000000200001002000810f70000100320038
:1004500014000700000020000000e000020032004d
:1004600000000200000000009a18020000000000d6
:100470000040da000000fe004440a9008002200095
:100480000000e0000300320000002000a00188000e
:100490004440a800000006008a1f78008b1f7800e7
:1004a0000000060091018800800478000000eb0045
:1004b0001a003700e284440032a0b4009905ba0063
:1004c000e284440032a0b4009906ba00e2844400f9
:1004d00032a0b4000006eb00476fde00fd07b2005b
:1004e000636ce10003003a00ebff07000000eb0043
:1004f0000a003700606ce10004003a00005deb0088
:100500008b05e900fdff3e00040037006168e10053
:10051000010032000086eb000b00070019c7ba008b
:100520001905ba000e04e00003003a000a00e000da
:10053000e0ff3a0000000600fe07b2009e018800be
:100540008a047800f5ff3700395dba008b05e900b1
:100550000c003200295dba008b05e900080032006a
:100560000c00e00003003a00e284440032a0b40032
:10057000f5ff370019ddba008b05e900faff3a00f4
:100580008904e800e184440032a0b40000000600c1
:10059000c805040000000000f2070400000000008d
:1005a00000000400000000000040da000000fe002f
:1005b0000a00fa0011002000b1bf9f00c0bf9f00d9
:1005c0006a805700060807004fb897000080fa00bd
:1005d000000006000a00fa0051002000b1bf9f0091
:1005e000c0bf9f006a805700ff0707005fb89700f1
:1005f0000080fa0000000600889fbe00800478009a
:10060000204880000000e00004003a000e000700cf
:100610000084eb000000e00008003500284880005e
:100620000900e00005003200090044000600070050
:100630000000e00001003d000084eb0008007800ad
:100640004f04be0000000600800078000100e000ba
:1006500003003a0000002000204888000000050048
:100660000080eb0002002000828f500002003e005c
:10067000214888000000eb00000006000000050093
:1006800003f0a200889fbe008a9fbe008c1f7800e6
:10069000840007008b0033006450e1004f003200fb
:1006a0006420e1005200320003826c0007003b002e
:1006b0000905d0000306d000820f54000c065d002f
:1006c0000200390002003200890178000306780038
:1006d0008582550004003d000003fd008103fd00fc
:1006e0008502ea008b854200840f720002003b0005
:1006f00060001000e08018006011b8000005eb00f9
:100700007a28e1000a00390006007800c75ddd00a4
:10071000f707b200878075002d00370082817100d5
:100720000a017800610560008180d1000080d3005b
:100730008502e900f9ff3b00060440008784480079
:1007400002003b0060041400e0841c000988a30040
:10075000070032008a8171008281710061016400aa
:100760008904d1000884d3008b05e8001700370006
:100770000978a30013003a000b00e00013003400d6
:100780008b05e9000804440089844c000a44740085
:100790000978a3000d003a000b00e00007003400c8
:1007a0008b05e9000804440089844c0001003a00ec
:1007b0000b0020000978a300f7ff32000001eb00d6
:1007c00002003700828171000a0178000f000700e3
:1007d0000cf0a70001f0a000430037006420e10006
:1007e00002003a00838f6c00430033000801be0012
:1007f0000200be003c003700f4ff2f0075003700f8
:100800004f89de00820178008d00370081002000d2
:10081000618055000b003d000b00200061fe2f00a1
:100820000100e1001d00340082817100610164005b
:100830008904d1000884d3000000e800faff3a00e0
:10084000710020006100640003007000020060007d
:100850000900320061044400e0844c000988a500ce
:10086000050032008b05e8006808e10002003a004c
:100870008904d1000884d300f20f20000258e1005f
:1008800005003d00c75ddd00f907b20089807500f5
:1008900008007800000006000bf827008b007800a5
:1008a000000005000004be00a40007000003be0015
:1008b0000405be000200be00a0000700844f7500c2
:1008c000000006000200be006450e1000500360092
:1008d0006420e100020036000968a30001003a002c
:1008e0000800be000160a0004f0678004f05be0062
:1008f0004f04be0000000600f0ff2f00f1ff2700ac
:10090000f9ff3700889fbe008a9fbe008c1f7800c9
:10091000e4ff0700ebff330003866c006450e10046
:10092000240032006420e100270032006150e10021
:10093000220032006120e100210032008b8542005c
:10094000eb07b1000134b800003ab80008044200d7
:1009500089844a00013ab8000030b800888040001d
:1009600009014a0004003300000040008180480073
:10097000020149008b05e900c909dd00830170000f
:100980000100320013002000c814de004814dd000e
:100990004709de001200b200c808de0008847000bb
:1009a0009aff070001f0a1000cf0a70001f0a000e1
:1009b000cdff37006120e100cfff32000801be000b
:1009c0000200be00f7ff37006150e100fcff3a0073
:1009d000c9ff3700889fbe008a9fbe00841f780031
:1009e000b0ff07004f00780011003300f0ff2f0028
:1009f000838f6c0006003b00040565000a00a70019
:100a00000800370009f0a600100020000800370099
:100a1000820f5400838f5c00030039001000200017
:100a200001003e000000200009f0a7000000ea00dd
:100a30004f05be004f04be000000e00000000600ad
:100a4000881f7800030478000300e00007003d00e1
:100a500060001000e080180060011900e0811900ba
:100a600002003b0001f02d000300370004000700e6
:100a700008f0a70001f0a0004f0478000000060075
:100a8000889fbe008a9fbe00008270000402710031
:100a900004827100260032000004be000200be0085
:100aa0006011b8006b092000950220000182cf0080
:100ab0000a0039000541b1000082cf00070039006b
:100ac0000541b1000982cf00040039000541b100a1
:100ad0000882cf00010039000541b10005425200f3
:100ae000120032000a003b00828171006101640043
:100af0008100d1000080d3008984d3000884d30012
:100b00008b05e8000442e800f7ff3a0007003700d1
:100b10000804440089844c0000004800818048009b
:100b20008b05e9000442e900f9ff3a0037ff0700ae
:100b30004f05be004f04be0000000600c70ade00dd
:100b4000f107b200f50fb20008003200e1cf420019
:100b5000020032000170a00024000500810f700027
:100b6000010032000408050044000500810f7000f8
:100b700002003a00140005008502e9000000400070
:100b800081c04800fcff3b000170a000240005006c
:100b9000889fbe000004780001007800820478007d
:100ba0008801780009017800110020000e0007007c
:100bb000890f5000010032000004eb0008007800ab
:100bc0004f04be00000006000000fa00e881570054
:100bd0004fb9970081822000805c200057010700f8
:100be0000080fa0000000600889fbe008a9fbe00b9
:100bf0008c9fbe008e1f78000006780001047800ec
:100c000002007800830478000881b90002077800a8
:100c10000200e000420032000800e0004100320023
:100c200082057800c900900069009000808f500014
:100c30000400390009007800500007000000e000bf
:100c40002900350000402000190060000a00320031
:100c50000b017800a10020000c007800360007008e
:100c6000800678000d00e0000600320061051600e5
:100c70000a854600040037000b0578008006eb006b
:100c8000010037000b05780049009000e900900052
:100c9000808050008a8f50000200310001057800ea
:100ca0008006eb000a0178008c0078002c00070019
:100cb0008a855500490090000a004000c004980051
:100cc0000d00e0000400320009007800d5000700a4
:100cd0000000e00004003a000b00e00002003200d7
:100ce0000a064600cfff3700008020001900600090
:100cf0000200320009007800ca00070000c020008e
:100d0000190060000200320049009000e0049800e1
:100d10008b055700110009008885d80001003700b5
:100d20000000eb004f0778004f06be004f05be00e5
:100d30004f04be000000060003003700b0cf1000d3
:100d4000050032000201e900800178000200e000a5
:100d5000faff3a00000005000300780000000600da
:100d60008001780002003700b15978000201e900e3
:100d70000200e000fcff3a0000000600889fbe0071
:100d80008a1f780000047800c80090006801900075
:100d90000000eb00828f50003c0039001800780002
:100da0002200290002016000e20f5100070032001a
:100db000012024000000e00001003d00012020008f
:100dc000008c70000080eb0030003700020026002d
:100dd00002006000820f500009003a0038009000c5
:100de000808f500006003900080078008d00070051
:100df000800078000080eb000100e00023003a0052
:100e00001805780000c020000000650018003a00b6
:100e1000a80490006002200008004000808f540069
:100e200013003a00002020007904070020049800f5
:100e30000000e00005003a002904980049049800e9
:100e40008904e80039049800080037000a60a0000f
:100e50000a0c7800400498000120200080804000a7
:100e600031049800400c9800500c98000c000700ca
:100e7000280090005004980038009000600498000a
:100e800000002600180c70000000eb004f057800f1
:100e90004f04be0000000600207f20009b003700aa
:100ea000881f7800e88f20001804e00003003a0053
:100eb000f9ff070020c0b300004c78004f04780011
:100ec00000000600889fbe0000047800080078003b
:100ed000540007008004780000042000180060001f
:100ee0000200320028009000cf0307000000eb0052
:100ef00020049800384090000004e0000500350010
:100f00000000fb00aafd07000000e0000100320025
:100f10008084eb00181090000000e0000800320010
:100f2000acfd07000000e000010032008084eb000f
:100f300018109000bc0307000000eb00101498008c
:100f40000008200018006000150032000001eb00ce
:100f50006000b800838720000202d00063027a009c
:100f6000880f520005003a000000400081804800d0
:100f7000008041000008eb000600370061004000df
:100f8000e08048000201e800e80f5000e08f5800c0
:100f9000f0ff3a0008007800a30307000e003700b6
:100fa000000c780000c0eb00304498006002200084
:100fb0000800400020049800400498005004980065
:100fc000400c980060049800500c98007004980041
:100fd00076004400000c9800090078004f04be0021
:100fe00000000600881f78000004eb006140b80094
:100ff000e2ff2f00f3ff2f000b070700628820009d
:10100000620078000000e00001003200adff070040
:101010000804e800e80f5400f4ff3a004f04780099
:1010200000000600889fbe00000478000800e00071
:101030000e003a008004eb008800d000808720007a
:10104000610078000000e00004003200f5ff0700b6
:101050000000e00001003d008084eb000804e8008f
:10106000e80f5400f4ff3a0025003700000022008a
:10107000180060008004eb0021003200a8049000fa
:101080000f00370009015100384090000000fb00bc
:10109000890078008b0907000000e00007003c0091
:1010a000280090004004980060049800500c9800bc
:1010b0001890a0008084eb00110037008084440069
:1010c00048019000828f5400eeff39002800900004
:1010d000400498009800780002c02000028160005f
:1010e00001003a003800900001e8a300020032003d
:1010f0006004980001003700500c98008004eb0059
:10110000090078004f04be00000006000100200026
:101110000100e00008003200010080000100e00052
:10112000050032008100e900010088008100d00044
:101130000200800000b17800000006006200fa00a2
:10114000889fbe008a1f780000057800810478001f
:10115000020478008300780080f92f000f0040001f
:10116000d10407009a979f00a9979f000000eb0009
:10117000b09f9f001885fb008a04fb000a05ea0067
:101180004f55de0050022000808f54000d003200c9
:10119000e10f55000b003a000a0178008800780042
:1011a0002f9097009f91970003000100a0979f0048
:1011b0000000e0008e0032003f9897000000e80039
:1011c000b09f9f000a04440050022000808f54000a
:1011d000040032000900e000e6ff3a003f98970063
:1011e000840037000000eb00909f9f00809f9f00cd
:1011f000f0979f00e0979f00d0979f00c0979f00b7
:1012000007003700418f200001005000000040001f
:10121000818e200061007800df9897000100700047
:10122000d09f9f0088047800090478003845780032
:101230008a00fb00408f20009f0307000000e000b1
:10124000f0ff3a00a1c2b300814f55000e003a00f2
:10125000cf8897000180e900c08f9f0010007800c0
:10126000c09f9f000000e00005003d000000ea0074
:10127000c09f9f005f9897000020a000d09f9f0014
:101280000904e8000f003700c09f9f000000eb003a
:1012900005003700f2ff2700820f500002003200e5
:1012a0006a01b900028040000904780088047800cf
:1012b000b900fb000103b100e98f5000f5ff3600d3
:1012c000c09f9f00e0c2b300984f100002003200a0
:1012d0000080eb0019003700a0c2b300d84f100007
:1012e00007003a00cf8897000180e900c08f9f0077
:1012f00010007800a09f9f000804e800100037004d
:101300000000eb00a09f9f008800780005003700d8
:10131000f3ff2700830f5000020032006a02b90079
:101320000400410001047800880078003101fb00ce
:101330000203b100e90f5100f5ff3600a09f9f00a6
:10134000984478008900fb00008e20005a030700b3
:101350000000e000020032000804e800010037004d
:101360008044eb00c97f9f0080c6b30080cf54004b
:1013700004003a0098cf14000a003a00664050007a
:1013800006003700c0c6b30080cf540005003a0005
:1013900098cf140003003a0065404000c07f9f00d2
:1013a0000804e8001801fb00e3fb2f008f814100d7
:1013b00081f92f008f804000a0f92f000f0040001e
:1013c000100007000000e00009003a00e1fb2f00d8
:1013d0008f804000a0f92f000f0040007603070027
:1013e0000000e000020035000804e80061ff37005b
:1013f0000080eb004f0578004f04be000080fa002b
:1014000000000600889fbe008a1f78000004780054
:10141000824478000305780070c4b30080cf540084
:101420000a003c0000c0e90080cf54000f003d00de
:1014300050c2b30080cf5400350032007c404000e1
:1014400080cf540035003a000800370010c6b300c2
:1014500080cf54000500320030003500b0c9b30021
:1014600000c04400e24f50002c003e002861900074
:10147000c0c4b300804f510006003a00110178004b
:1014800068005100800878005001be004000be0096
:1014900005003700110178006400510080087800d1
:1014a0001000be000a050700009cbe000294be00aa
:1014b000b8009000780090000100e00002003d00bc
:1014c000d1c2b30008003700881090000118a300b3
:1014d00002003200b1c2b300030037000108a300cc
:1014e0000400320001c2b300017578000000e8007a
:1014f0007004980078009000000545006a04980088
:101500008900fb0008007800100007000b0037007e
:101510007800900009757800060037007800900088
:10152000000545000904e00001003a0059c2b3007b
:10153000094d78000000e800700498000000eb00fe
:101540004f0578004f04be00000006002f04b000d5
:10155000889fbe008a9fbe008c9fbe008e1f7800b1
:101560000007780081f79f003e04be002e05be00f4
:101570005e0890000000e00002003d0060002000d6
:10158000500f98008e00780020fb2f000f004000c5
:10159000df020700e20f50000a003a00300020008e
:1015a000100f9800b1c9b3000ff0970081404000c0
:1015b000c0882000e1cf50000d003e008088200050
:1015c0000b0037000000e0000f0034003000200066
:1015d000100f9800b1c9b3000ff19700814041008e
:1015e00040892000e1cf500001003e00008920002a
:1015f000ee009000b0487800b068780010407800a5
:1016000090409800f30037000000e00005003a0029
:1016100022fb2f000f014100001978008001eb0030
:10162000e70037006022b8006033b8000800be0051
:101630000a01be00ee0307000000e00001003d00cb
:101640000bf0a200705927009f9897000088b900fe
:10165000026a2800130020004904070064065000b5
:101660009c9f9f0013003b0063061600c0ff2f00e5
:10167000000666008c01ea00939f9f008d89200080
:101680000800be000a01be00070037000c08a300d6
:10169000030032003d02be002d03be00da04070045
:1016a0000c86d100e88646000c00e000f7ff3c0005
:1016b000180037000c00e00018003200c0ff2f00b7
:1016c000000666009c9f9f008d8920006000b80086
:1016d0000200200003ff2300070037000c08a300ce
:1016e000030032003d02be002d03be00c604070009
:1016f0000c86d100e88646000c00e000f7ff3c00b5
:101700000002be000203be000800be000a01be00c7
:10171000c10307000004be000205be00de08900001
:1017200060c6b3000ff29700804f520004003200f1
:101730006000200062c4b300824f520002003a00f1
:101740009f9a97006a80420081004000f1b79f0095
:1017500001037800f30f530002003400370120002a
:10176000f7b79f0000c3b300c0779f0056fb2f0060
:101770000f0343000e007800a0b79f000607780013
:101780003d0037000800be000a01be006f040700dc
:101790000006be007fb1970068015100f2b79f00bc
:1017a0004240a9000c003400940407000002be006f
:1017b0000203be000800be000a01be0008050700c3
:1017c0006022b80046782d00771924008e040700a7
:1017d0000004be000205be00e80047008e002000a5
:1017e0000802be000a03be00b4b79f00c5b79f0041
:1017f000d6b79f00e7b79f000c01be000104780038
:101800000c003700a400200005002000c0fd2f00c0
:101810000f004000b60107006fa89700ffa89700cf
:101820000fb197009fb1970005c3b3000564410055
:101830000001be00e00f5100e08f590003003400aa
:101840000e07e900e10f4700eeff3a00880078003c
:101850003fb49700cfb497005fb59700efb59700fe
:101860000200370000c3b300806078000e07e90073
:10187000fcff3b00688740007fb397000600e00054
:10188000070034006022b8006033b8000800be00d2
:101890000a01be005b0307000000e000b9ff3c0046
:1018a0000e0378002fb7970051fb2f008f80400068
:1018b000010353009f9b970067804300909f9f0008
:1018c000020037000603e9000000e900010178008a
:1018d0008200780003c3b300b1cf1100f9ff3200da
:1018e000909f9f00de09900061c6b3000ff2970041
:1018f000814f52000300320061c4b300814f520097
:1019000002003a000000e8000a0037001000200042
:1019100051c6b3008ff2970081cf5200050032000c
:101920000540780050c4b2000080fb000000e900d0
:101930004f00de0083014000868f5100010034001b
:10194000860178000300e0001d00350000c3b300ed
:10195000868f510006003d0062c279006940400058
:1019600041c3b300814f520001003c006940500068
:101970008300e90081004100010037008401780004
:101980000302e90001037800a142780080cf5200f1
:10199000faff320091c3b300814f500001003a00ba
:1019a000054be8000400e00005003d000201e900ed
:1019b0008301e8001f9b97000603e800969f9f00a5
:1019c0008ff397008700fb001f9a97000e007800a6
:1019d000060007004f0778004f06be004f05be0007
:1019e0004f04be002f04b10000000600f08747003e
:1019f000889fbe008a9fbe008c9fbe008e1f78000d
:101a000000047800814478000205be0004067800d6
:101a10000b00e00002003c001b0020000a902000a8
:101a200060c6b30080cf54000e00320060c4b30023
:101a300080cf54000b00320070c6b30080cf54003a
:101a40000300320070c4b30080cf540081003a001c
:101a5000e40f46007f00350058089000800f5600c4
:101a60007c003d000c06e80060c6b30080cf540047
:101a70001000320060c4b30080cf54000d0032006b
:101a8000081090000038a30004003a0058089000a5
:101a9000808f550001003d005b0c980058089000b5
:101aa0000c005000500c980002003b000000eb00be
:101ab000500c980018089000e80090000c00e0001e
:101ac00026003c0002c3b300827078000000e800ea
:101ad000100c9800d80890000100e00003003c00c2
:101ae000881090000138a30005003200e800900043
:101af000e2c2b300827078000000e800100c980089
:101b0000580890008c00ea00810f500001003d0051
:101b10000006ea008c00ea00210c9800000646004e
:101b20005c0c98008b0f5600010034000b06780007
:101b30003c0c9800e80090001808900000804000dd
:101b40000c0178008a00780085fc07005808900096
:101b50000c0650004c0c9800900037008c8f5500fc
:101b600018003d00008040000b0178008a007800da
:101b70007bfc07001808900000804500100c9800be
:101b80008b0556002b0c9800d80890000100e0004f
:101b900003003c00881090000138a30006003200ca
:101ba000e8009000e2c2b30082707800380890002c
:101bb0000000e800300c980058089000400c980095
:101bc00076003700008040000c0178008a00780021
:101bd00063fc07001808900000004600100c9800f5
:101be0008c855500d80890000100e00003003c00ff
:101bf000881090000138a30005003200e800900032
:101c0000e2c2b300827078000000e800100c980077
:101c100058089000808f550001003400800578003e
:101c2000e800900018089000008040008c004500fb
:101c30000b0178004afc0700180890000b004000d8
:101c4000100c9800580890008b0550002b0c980041
:101c50005200370018089000e80090009a70780051
:101c60000000e800100c9800d80890000100e00087
:101c700003003c00881090000138a30005003200ea
:101c8000e8009000e2c2b300827078000000e80033
:101c9000100c9800580890000000e000100034007c
:101ca0008b05e900808f5500010034008005780025
:101cb000e800900018089000008040008a00e800ca
:101cc0000b01780026fc0700180890000b0040006c
:101cd000100c9800580890008b0550002b0c9800b1
:101ce000e800900018089000008040000958780033
:101cf0000007e8000c00e00004003500b1c2b300aa
:101d0000014878008e04780004003700d1c2b30087
:101d1000014878008e0478000c06ea007d855700a3
:101d20008006eb0009003700a20020008c0078003c
:101d300072805700310007007fb097008fb897007e
:101d4000016d7800000678008d06e8000c00e000c8
:101d5000f5ff3c000d00e00009003a008e04780019
:101d600000c3b300805c7800050037008d06e900f1
:101d7000fc80570061c07e0002c3b300825c40005b
:101d80000d00e000f9ff3c00e8009000180890000a
:101d90000080400080845400390c980008109000a6
:101da00074006000f00f50000e003a009808900098
:101db0007800900000804000a808900001004000da
:101dc000b808900001004000c808900001004000e1
:101dd000f8089000810f500002003d000080500084
:101de000000c98004f0778004f06be004f05be005c
:101df0004f04be000f01b100000006008002780011
:101e000001037800110009000203d8008001780066
:101e1000830a78000299b9000201530092029800e7
:101e200005007800000006000000e0002f003200ee
:101e3000c0017800e38f51002c0036000308a30096
:101e40002a003a00e14780000100e0000200320071
:101e5000810f50000400310011009800e047880015
:101e60001600370082007800110190000200e000a7
:101e700002003200800f5100faff39001102780091
:101e800084824000850f500018003900808f520076
:101e900003003a0083084200010078000700370081
:101ea0000200e0000300320083014000830f510074
:101eb0000e003900120098009000980090009000e9
:101ec0000100e0000900320010014000828f500044
:101ed00006003a00a28f20000009eb0010017800f4
:101ee00011084100910090001100980000000600c8
:101ef000881f78008a9fbe008c9fbe000004780077
:101f00000205be000406be000401be000a00be00b9
:101f10001b020700008cbe000c01be00420307003c
:101f20000005550081855d002a0498003b04980057
:101f3000080078004f06be004f05be004f04780031
:101f400000000600889fbe0000047800d147800092
:101f50000100e00002003200010078000d003700af
:101f6000e1478000c08f200004003700910f54002b
:101f7000250036000180e800910090000100e0009b
:101f8000faff3a0010003700920f54001e0036008e
:101f90000280e800100178000200e000faff3a0039
:101fa00011017800e1478000c08f20000400370055
:101fb000910f5400140036000180e8009100900059
:101fc000828f5000faff3a0019488000888f540031
:101fd0000100310088047800090078004200070001
:101fe0000000e00004003a00888f54000500320031
:101ff0008904d100f5ff3700091878008aff07002f
:10200000d2ff37000000eb004f04be0000000600c6
:10201000881f7800630440000800a1008000eb00e6
:10202000800f540021003600e30f540001003e00f1
:102030004800200008007800c2ff07008000eb0085
:102040000000e00019003200900078009101780053
:1020500064815100880f510003003100110190008c
:102060000208780007003700088140000208780065
:1020700091019000130198001001780011091400db
:1020800088087800100178000000eb000200e000f2
:1020900004003200920190000300e00001003200d1
:1020a0000280e800d04788008180e80001007800c5
:1020b0004f04780000000600020037000304e0002f
:1020c000060032000001780002007800b04178007c
:1020d00081cf5100f9ff3a00010037000001eb0009
:1020e0000200780000000600800078000000eb008d
:1020f0000100e00005003400010078003ef907000f
:10210000e10f400001003a000000eb000000060073
:10211000889fbe0000047800e68440001900d000cb
:102120004500de00f27f2000820f500010003a00d0
:10213000000ceb00990478006f81640020002000ff
:102140001b003a00210190000200e00018003a0054
:10215000110190000200e00015003a00100020007c
:102160001100e000120032002000200010003700b3
:102170000000e00004003a0001007800cc000700f5
:102180000000e00008003c00f20028001901610096
:1021900001fe2300810c710021c02f00010c4000c2
:1021a0000080eb0002003700000ceb000000eb00a9
:1021b0004f04be00000006000400fa00889fbe0025
:1021c0008a9fbe008c1f780000047800010678000a
:1021d000f80d900078009000808555000808900068
:1021e00080855500180890008085550028089000cb
:1021f000808555003808900080855500480890007b
:10220000808555000002220090bf9f00000323003c
:10221000a0bf9f00081090000028a30015003a00fe
:102220000b00e000130034000b0578008a047800ee
:10223000e20f55000100360029002000c80190007f
:1022400009017800ee80570058009000030001005b
:10225000500498000000e0008c00320068089000f4
:1022600009004000600c9800090555004240a90093
:10227000eeff3c00780190000200e0000c0034000a
:10228000c80190008c007800580090000300010005
:10229000500498008080eb000000e0007c003200d9
:1022a000e80890007800900000804000600c9800e2
:1022b000880c90000900e000110034000905780046
:1022c000e28f5400010036002a002000c80190006f
:1022d0000a017800ec8057005800900003000100cc
:1022e000500498000000e000680032006808900088
:1022f0000a004000600c98008a845400edff37000b
:10230000180990000200e0000c003400c8019000a1
:10231000e80090005800900003000100500498006d
:102320008080eb000000e00059003200e8089000d7
:102330001808900000804000600c9800a80c9000e5
:102340000900e0001100340009057800e28f540014
:10235000010036002a002000c80190000a01780020
:10236000ec805700580090000300010050049800d2
:102370000000e00045003200680890000a004000bc
:10238000600c98008a845400edff370038099000f3
:102390000200e0000e003400e800900018089000f1
:1023a00080804000c80190005800900003000100a8
:1023b000500498008080eb000000e0003400320000
:1023c000e80890003808900000804000600c9800f9
:1023d000c80c90000900e0001100340009057800e5
:1023e000e28f5400010036002a002000c80190004e
:1023f0000a017800ec8057005800900003000100ab
:10240000500498000000e0002000320068089000ae
:102410000a004000600c98008a845400edff3700e9
:10242000081090008000eb000028a3001800320084
:102430000b00e000160034008b04780009057800da
:10244000e28f5400010036002a002000c8019000ed
:102450000a017800ee805700580090000300010048
:10246000500498000000e000080032006808900066
:102470000a004000600c98008a8454004240a90081
:10248000eeff3c008000eb00010037008080eb0095
:10249000010078004f0678004f05be004f04be00d3
:1024a0000080fa0000000600010878000000060025
:1024b000e600400011017800050028008502610057
:1024c0006f016100820878000200320012002000d3
:1024d00011003700a0019000120020000300e0006e
:1024e0000d003a00900190000300e0000a003a005d
:1024f0001000e00008003a00360037006403400096
:102500009608780080017800530b780090097800d5
:102510000408780070015100110278000400e00006
:10252000f6ff320013003700640240001403780005
:102530004f33de00838141008308730080017800ff
:10254000d3037800cf3bde0014037800060343007a
:10255000068a730013027800040242001003780018
:102560004f33de0086097200900178000388410035
:102570000201e90091017800ef8f5100eaff360077
:102580001000370080017800530378004f33dd00de
:102590001002d10004087300640240009403780024
:1025a000cf3bdd001303d10086897300110378004f
:1025b0004f33dd009401d100030a73009108d1006c
:1025c0000201e80091017800ff8f5100edff3e000d
:1025d000ef88610091887200020078000000060018
:1025e00000c0da000000060000c0da0000000600ab
:1025f0008f1fd100100207008f87e9000000e00064
:1026000000000600809feb000b0207008f87e900a7
:102610000000e000000006002800fa00889fbe00cd
:102620008a9fbe008c9fbe0003866b008f00070050
:102630006400e100440032006408e1004a00320016
:102640006100e100460032006108e100490032000b
:10265000ec0647006000b8003d02be003d03be002e
:10266000f48657006011b8003d04be003d05be0071
:102670007d0320000b0037000000a0008d06e9005c
:10268000130032000402420085824a0006034b0018
:1026900087834b0000004000818048000201490010
:1026a000838149000802520089825a000a035b00b4
:1026b0008b835b00f0ff3b000802420089824a00e6
:1026c0000a034b008b834b008d06e900edff3a00b7
:1026d0008482720086827200f707b20087827200dd
:1026e00001003200150020001e0490003e0b9000f7
:1026f00006035400e63fb0000368a3000700320061
:102700000000a7000500a0008301d1000281d300d2
:102710008180d3000080d3000603e8008301d1004c
:102720000281d3008180d3000080d3000002eb003f
:102730000482d2002100070003f0a1000cf0a700e2
:1027400003f0a0005d003700640247006408e10068
:10275000570032003400be003401be00f6ff3700df
:102760006108e100520032006011b8006000b8005a
:10277000f1ff370003ff270002002000fbff3700b6
:10278000839f68000100e00002003d00600010002f
:10279000e08018000300e00002003d00600111002d
:1027a000e0811900100107004f00e00002003b002b
:1027b00060001000e08018000000060018002000f3
:1027c00057002000080453000d003d0006002000c3
:1027d00097fc2f000740e1001e0034008482720045
:1027e000610260008301d1000281d3008180d300a7
:1027f0000080d3000804e800f8ff3a0047002000fa
:102800006104600005047400040464000d003200db
:1028100061004000e080480060014900e08149001b
:1028200003b8a500070032000603e8006538e100a0
:1028300004003a008301d1000281d3008180d300db
:102840000080d300f87f20000830e100030035004d
:10285000080378006000b8006011b8004433dd0060
:10286000f300b20083017300000006006804470013
:102870000294be000094be00fc0447008694be0093
:102880008494be0009007800b401070008007800b5
:10289000b201070099007800814f70000b003b00e7
:1028a0000800be008d0107004f00b1000300370093
:1028b000f3ff2700f2ff2f006110b9004f06be00a2
:1028c0004f05be004f04be000080fa000000060065
:1028d0008103780099f807000001be006000b8008d
:1028e0000478a30013003a006220e10015003e00c6
:1028f0000d0039008301d1000281d3008180d30013
:102900008301d1000281d3008180d3008301d100f3
:102910000281d3008180d3000538b000c42add00d5
:10292000f300b2008381720007f0a70003f0a0005b
:1029300000000600f3ff2700f2ff2f006110b9002e
:10294000fbff370003ff2700f7ff37001400fa00f2
:10295000889fbe008a9fbe008c9fbe000004be0000
:102960000205be00680047000a90be000890be0045
:102970007a0107000070a7000bf0a100304320008f
:102980009e02900080825200b0fe2f000028e100dd
:1029900011003d00b0fc2f000028e10015003400bc
:1029a0001e0990008e0890007e0090000501b00086
:1029b0000201d1008180d3000080d3008502e800ad
:1029c000fbff3a000b00e000bcff3b006000100082
:1029d000e0801800b9ff3700f0ff2f00f1ff27005b
:1029e0000b00e000b5ff3b000100280000002000c4
:1029f000b2ff37006000b800b0ff37004f89de003b
:102a0000820178007c0137002800fa00889fbe0010
:102a10008a9fbe008c9fbe0003866b0093ff070059
:102a20000028a30064003a000128a30067003a00d0
:102a30000008a30062003a000108a30065003a0004
:102a40001e009000be08900081064000ed3fb100de
:102a5000f4805700ee019000111ab8008e09900022
:102a6000311bb8009e099000311cb800511db80000
:102a7000f485570046000700fe0190003a00070069
:102a80008b85e8003e0007008e099000400007009b
:102a9000ee019000340007008b85e8003800070045
:102aa0008e099000400007009e0990001b18b80096
:102ab000890440000a854800fe01900034000700a8
:102ac0008b85e80038000700ee0190003000070019
:102ad0008e0990001b18b800890440000a85480040
:102ae0000a98a30008003a000402420085824a00c6
:102af00006034b0087834b0008044c0089844c007c
:102b00000a054d008d06e90084827200850273007b
:102b10004c3add00850272000100320015002000f1
:102b2000443ade001400b2004538de00cb45dd003b
:102b30000b007000c540de00cb4ddd008b807000c7
:102b40004549de00cb55dd000b017100c551de00ab
:102b50000d03780019ff070003f0a1000cf0a70097
:102b600003f0a00055ff37001b18b8008502400095
:102b700006834800e0834b0060044c0007003700e8
:102b80001b18b8000603400087834800faff37008f
:102b90001b18b8008703400008844800e0844c00fc
:102ba00060054d00000006001b18b8000804400036
:102bb00089844800faff37000108a3003cff3a006f
:102bc0005800be005801be00e3ff37000008a30014
:102bd00037ff3a0009047800f9ff370000000000d1
:102be00007f0a200160037006022b800060220009d
:102bf0000000d0008180d2000482d2008582d20001
:102c00000000a0000202520083825a00030031003b
:102c10000202420083824a000000a1000603e9008c
:102c2000f3ff3a0000000600020ab900001bb900d9
:102c30000200b8008100420081004300000006004d
:102c40002800fa00889fbe008a9fbe008c9fbe00ad
:102c500007067800878669000c003b0003047800b3
:102c60008704780008f0a10009f0a100840f50004b
:102c7000858f5800860f5900890f5c0003003300d0
:102c80000cf0a20001003a000cf0a100f7fe0700d2
:102c90006400e1005f003200780147006408e10051
:102ca000610032006c014700748557003200be009d
:102cb0001201be003a04be001a05be001e039000b9
:102cc000be0a90008503530006003d000004fd008d
:102cd0008104fd000205fd008305fd008703ea0075
:102ce000050378000df8a30004003200600414000e
:102cf000e0841c0060051d00e0851d006022b80016
:102d00007d0320000d38e1008006eb000b00390048
:102d10004433dd00f300b200830173003900370053
:102d2000848272000d027800e10664008b85d10078
:102d30000a85d3008984d3000884d3008703e9007f
:102d4000f7ff3b0008004000898048000a01490065
:102d50008b81490004003b0060001000e0801800f7
:102d600060011900e08119000358a3000900320036
:102d70008d82720084827200610260008301d10042
:102d80000281d3008180d3000080d3000603e800d5
:102d90001b0037000348a30017003a000600e000bc
:102da000170034000603e9000d00a30000004800ee
:102db0008180480002014900838149000348a30043
:102dc0000f003a000600e000090034000603e900a5
:102dd00000004000818048000201490083814900d1
:102de00001003a000003eb000348a300f5ff3200a6
:102df0006022b8000200370084827200618266009f
:102e00006efe070003f0a1000cf0a70003f0a00085
:102e1000aafe3700640147006408e10002003a009e
:102e20000df8a300a2fe3a003200be001201be005f
:102e3000a2fe370000000000889fbe008a9fbe00ef
:102e40008c9fbe000404be000605be00809fbe002d
:102e5000829fbe002f000700040678000800be0015
:102e60000a01be002b000700840678004f03be0055
:102e70004f02be008d4f76007fb0970013003300e5
:102e8000f0ff2f008b8f6b0006003b000d066600e5
:102e90000c00a7000a00370007f0a6001000200071
:102ea0000a003700880f5200898f5a008a0f5b0092
:102eb0008b8f5b00030039001000200001003e00f2
:102ec0000000200007f0a7000000ea004f06be0047
:102ed0004f05be004f04be0000000600e482400023
:102ee0001078a30007003200640240001178a300ac
:102ef0003400be001401be00040032000330a700fd
:102f0000000006003500be001501be000330a00021
:102f10000000060005ff270005826100070032005f
:102f20000428e1000100320024000500060007002b
:102f300001003a00440005000408050002000700f3
:102f4000f9ff3a00140005006f82610081027000f1
:102f50008502710085027200000006008000780082
:102f60005002be005003be004439de00f700b2003c
:102f7000f37f200003016100090032000218e10024
:102f800016003a008501720083017300838173008b
:102f90000008200015003a00400020001300370010
:102fa00085017200830173008381730005003a007c
:102fb00004a8be0006a8be00100020000b003700c9
:102fc0000201e9000402420085824a0006034b0028
:102fd00087834b000748a300f9ff32000740a00099
:102fe00004a8be0006a8be002000200080009800b3
:102ff0009200980000000600881f78000304780003
:103000000300e00007003d0060001000e0801800b1
:1030100060011900e081190002003b0001f02d0061
:10302000030037000400070008f0a70003f0a00029
:103030004f04780000000600889fbe0000827000e8
:103040000402710004827100240032003643200023
:10305000c50020008383cf000a0039000541b1007c
:103060008283cf00070039000541b1008183cf0082
:10307000040039000541b1008083cf000100390010
:103080000541b10085c353006022b8001200320030
:103090000a003b0084827200610260008301d1005b
:1030a0000281d3008180d3000080d3000603e800b2
:1030b0008743e800f7ff3a000700370000004000b0
:1030c0008180480002014900838149000603e9002c
:1030d0008743e900f9ff3a00b8fd07004f04be003e
:0430e00000000600e6
:020000040000fa
:1030e4000a0a0000566300006d700000203d0000d5
:1030f400202500002e320000662000006d560000de
:10310400200d00000a0000005663000061700000fa
:10311400203d0000202500002e3200006620000023
:103124006d56000020200000200d0000200000004b
:020000040000fa
:103134000c00fa00881f78005a00070033010700ca
:10314400320107002007980030010700ae0090000c
:1031540000804000200798002c010700ae0090007a
:10316400008040002007980028010700ae0090006e
:1031740000804000200798002e0090004280de006e
:10318400200798002e0090004480de00ae009000de
:1031940000804000200798002e009000cf80de00c1
:1031a40096f5070002002400e3f42300d4f5070099
:1031b40030079800410798003e009000ce00900030
:1031c400809fbe0020872900801f78007df60700bd
:1031d400e68757000d010700500798005e00900035
:1031e400cf80de0085f5070002002400e3f423000d
:1031f400c3f5070030079800410798001e01be0080
:103204003e009000ce0090001cf5070001f0a100e4
:1032140018c0b300020020008324240075f50700c1
:103224000000e00001003c000044eb000804e00062
:10323400070032003e009000ce009000809fbe0048
:1032440060882900801f78005ef60700e687570033
:103254003e019000ce019000028fbe00de0090007f
:103264002e009000808f500007003400611680000b
:10327400f0ff20008080600000002c00010070003e
:1032840060168800d3ff370061168000f0ff20002d
:103294008080600000002300010070006016880038
:1032a400ccff37000000fa000a000700c462a8003f
:1032b400c062a90041168000f0ff20000080600079
:1032c40040168800c042a8009a0007000080fa0057
:1032d400000006000000fa0090022000303a880046
:1032e400213a8000f0f32f0000806000203a88002b
:1032f400213a800000fe2f0000806000203a880000
:103304001200200080072000a1092000337420004f
:1033140080497800814978008249780012002000b1
:103324006004200071052000237420008049780087
:10333400814978008249780000000000113a800039
:10334400000027008080600000002100808f500072
:10335400faff3a0000000000113a80000002200049
:10336400008060000000e000fbff32000080fa00f3
:04337400000006004f
:020000040000fa
:1033780000080000880000000200000001000000b2
:103388000026080027082600082608002608260028
:1033980008160800000000000000000000000000ff
:1033a8000000000000000000000000000000000015
:1033b8000002080001014e00084f08004e084e00a8
:1033c800084e08004e083e000800000000000000fb
:1033d80000000000000000000000000000000000e5
:1033e80000000000000002000802020076087700d2
:1033f8000876080076087600087608006608000057
:1034080000000000000000000000000000000000b4
:103418000000000000000000000000000008280074
:103428000850080000000000000000000000000034
:1034380000000000fe08000002000000000000007c
:10344800e00800001a00000002000000686a6c0032
:10345800747a4c000000010000020000040008001b
:1034680000100000000020002b2d23003000000079
:103478008808000058000000020000006e616e001d
:10348800004e41004e0069006e660000494e46003d
:1034980000000000000000000024400000000000c0
:1034a8000000000059400000000000000088c30030
:1034b8004000000000008400d79741000080e00031
:1034c8003779c300414317006e05b500b5b89300be
:1034d80046f5f9003fe903004f384d00321d300032
:1034e800f9487700825a3c00bf737f00dd4f150012
:1034f8007500000000090000020000000200000042
:103508003000000002090000020000000200000074
:1035180004000000fa080000040000000000000099
:103528000409000002000000000000000000000084
:020000040000fa
:103538000000fa002022ef002222ef0030102000c5
:10354800401188005136800000fe2f000080600086
:103558003000b300503688002135800000fe2f006f
:1035680000806000b000b3002035880021e2a80088
:103578002342a8000080fa00000006000200fa00ba
:10358800004f78000000000011118000002020008a
:10359800008060000000e000fbff3a001e00fb0016
:1035a800201188000080fa00000006000200fa00de
:1035b800000f7800040037001e00780010407800e3
:1035c8001e0fe800edff07001e007800104078008d
:1035d8000004e000f8ff3a000080fa00000006004e
:1035e8000000fa0000000000101180006100600077
:1035f8000000e000fcff320030118000004078003d
:103608000080fa00000006000200fa002023ef0004
:103618002143a80001198000000e2000010070005d
:10362800001988002223ef002423ef0025e3a800d7
:103638002119800000f02100010070002019880085
:103648003223ef002623ef005000200040198800a5
:10365800601980000050a1006019880095a0a90099
:1036680021e3a800cc62a800c862a9000080eb0092
:10367800000f780004003700000000001e007800ea
:103688000000e900000f78001e0078000000e0004c
:10369800f9ff3a00c862a8002023a8000000000033
:1036a80000198000610060000000e000fcff3200ab
:1036b800001880000080fa00000006000800fa00e8
:1036c8001007980021079800320798001e00900004
:1036d80060004000e20f50000e003e00be00900067
:1036e800010f7800070037002e0090001040780086
:1036f800ae0090008100e800210798009fff0700b6
:103708001e0fe9001e0078000000e000f6ff3a00f6
:1037180001003700000000003e0090000080fa0021
:043728000000060097
:020000040000fa
:0200000401f009
:04000c008000000070
:020000040000fa
:0200000401f009
:0400100043000000a9
:020000040000fa
:0200000401f009
:040014005f00000089
:020000040000fa
:0200000401f009
:04001c00dfff000002
:00000001FF
